{
	"contracts/kipu-bank.sol": {
		"KipuBank": {
			"abi": [
				{
					"inputs": [
						{
							"internalType": "uint256",
							"name": "_limiteBancario",
							"type": "uint256"
						},
						{
							"internalType": "uint256",
							"name": "_limiteRetiro",
							"type": "uint256"
						}
					],
					"stateMutability": "nonpayable",
					"type": "constructor"
				},
				{
					"inputs": [],
					"name": "KipuBank_CantCero",
					"type": "error"
				},
				{
					"inputs": [
						{
							"internalType": "uint256",
							"name": "_cantDeposito",
							"type": "uint256"
						},
						{
							"internalType": "uint256",
							"name": "_cantDisponible",
							"type": "uint256"
						},
						{
							"internalType": "uint256",
							"name": "_limiteBancario",
							"type": "uint256"
						}
					],
					"name": "KipuBank_LimiteBancarioExcedido",
					"type": "error"
				},
				{
					"inputs": [
						{
							"internalType": "uint256",
							"name": "_cantidad",
							"type": "uint256"
						},
						{
							"internalType": "uint256",
							"name": "_limite",
							"type": "uint256"
						}
					],
					"name": "KipuBank_LimiteExcedidoRetiro",
					"type": "error"
				},
				{
					"inputs": [
						{
							"internalType": "uint256",
							"name": "_requerido",
							"type": "uint256"
						},
						{
							"internalType": "uint256",
							"name": "_disponible",
							"type": "uint256"
						}
					],
					"name": "KipuBank_SaldoInsuficiente",
					"type": "error"
				},
				{
					"anonymous": false,
					"inputs": [
						{
							"indexed": false,
							"internalType": "address",
							"name": "_sender",
							"type": "address"
						},
						{
							"indexed": false,
							"internalType": "uint256",
							"name": "_cantidad",
							"type": "uint256"
						}
					],
					"name": "KipuBank_Deposito",
					"type": "event"
				},
				{
					"anonymous": false,
					"inputs": [
						{
							"indexed": false,
							"internalType": "address",
							"name": "_receiver",
							"type": "address"
						},
						{
							"indexed": false,
							"internalType": "uint256",
							"name": "_cantidad",
							"type": "uint256"
						}
					],
					"name": "KipuBank_Retiro",
					"type": "event"
				},
				{
					"inputs": [],
					"name": "depositar",
					"outputs": [],
					"stateMutability": "payable",
					"type": "function"
				},
				{
					"inputs": [],
					"name": "getSaldo",
					"outputs": [
						{
							"internalType": "uint256",
							"name": "",
							"type": "uint256"
						}
					],
					"stateMutability": "view",
					"type": "function"
				},
				{
					"inputs": [],
					"name": "i_limitRetiro",
					"outputs": [
						{
							"internalType": "uint256",
							"name": "",
							"type": "uint256"
						}
					],
					"stateMutability": "view",
					"type": "function"
				},
				{
					"inputs": [],
					"name": "i_limitValorDeposito",
					"outputs": [
						{
							"internalType": "uint256",
							"name": "",
							"type": "uint256"
						}
					],
					"stateMutability": "view",
					"type": "function"
				},
				{
					"inputs": [
						{
							"internalType": "uint256",
							"name": "_cantidad",
							"type": "uint256"
						}
					],
					"name": "retiro",
					"outputs": [],
					"stateMutability": "nonpayable",
					"type": "function"
				},
				{
					"inputs": [],
					"name": "s_cantDepositos",
					"outputs": [
						{
							"internalType": "uint256",
							"name": "",
							"type": "uint256"
						}
					],
					"stateMutability": "view",
					"type": "function"
				},
				{
					"inputs": [],
					"name": "s_cantRetiros",
					"outputs": [
						{
							"internalType": "uint256",
							"name": "",
							"type": "uint256"
						}
					],
					"stateMutability": "view",
					"type": "function"
				}
			],
			"devdoc": {
				"author": "Facundo Criado",
				"events": {
					"KipuBank_Deposito(address,uint256)": {
						"params": {
							"_cantidad": "La cantidad de Saldo depositado",
							"_sender": "La direccion que realizo el deposito"
						}
					},
					"KipuBank_Retiro(address,uint256)": {
						"params": {
							"_cantidad": "La cantidad de saldo retirado.",
							"_receiver": "La direccion que realizo el retiro"
						}
					}
				},
				"kind": "dev",
				"methods": {
					"getSaldo()": {
						"returns": {
							"_0": "Saldo del usuario"
						}
					},
					"retiro(uint256)": {
						"params": {
							"_cantidad": "La cantidad de saldo a retirar"
						}
					}
				},
				"title": "Contrato bancario",
				"version": 1
			},
			"evm": {
				"assembly": "    /* \"contracts/kipu-bank.sol\":127:4543  contract KipuBank {... */\n  mstore(0x40, 0xc0)\n    /* \"contracts/kipu-bank.sol\":2463:2621  constructor (uint256 _limiteBancario, uint256 _limiteRetiro) {... */\n  callvalue\n  dup1\n  iszero\n  tag_1\n  jumpi\n  revert(0x00, 0x00)\ntag_1:\n  pop\n  mload(0x40)\n  sub(codesize, bytecodeSize)\n  dup1\n  bytecodeSize\n  dup4\n  codecopy\n  dup2\n  dup2\n  add\n  0x40\n  mstore\n  dup2\n  add\n  swap1\n  tag_2\n  swap2\n  swap1\n  tag_3\n  jump\t// in\ntag_2:\n    /* \"contracts/kipu-bank.sol\":2558:2573  _limiteBancario */\n  dup2\n    /* \"contracts/kipu-bank.sol\":2535:2573  i_limitValorDeposito = _limiteBancario */\n  0x80\n  dup2\n  dup2\n  mstore\n  pop\n  pop\n    /* \"contracts/kipu-bank.sol\":2600:2613  _limiteRetiro */\n  dup1\n    /* \"contracts/kipu-bank.sol\":2584:2613  i_limitRetiro = _limiteRetiro */\n  0xa0\n  dup2\n  dup2\n  mstore\n  pop\n  pop\n    /* \"contracts/kipu-bank.sol\":2463:2621  constructor (uint256 _limiteBancario, uint256 _limiteRetiro) {... */\n  pop\n  pop\n    /* \"contracts/kipu-bank.sol\":127:4543  contract KipuBank {... */\n  jump(tag_6)\n    /* \"#utility.yul\":88:205   */\ntag_8:\n    /* \"#utility.yul\":197:198   */\n  0x00\n    /* \"#utility.yul\":194:195   */\n  0x00\n    /* \"#utility.yul\":187:199   */\n  revert\n    /* \"#utility.yul\":334:411   */\ntag_10:\n    /* \"#utility.yul\":371:378   */\n  0x00\n    /* \"#utility.yul\":400:405   */\n  dup2\n    /* \"#utility.yul\":389:405   */\n  swap1\n  pop\n    /* \"#utility.yul\":334:411   */\n  swap2\n  swap1\n  pop\n  jump\t// out\n    /* \"#utility.yul\":417:539   */\ntag_11:\n    /* \"#utility.yul\":490:514   */\n  tag_19\n    /* \"#utility.yul\":508:513   */\n  dup2\n    /* \"#utility.yul\":490:514   */\n  tag_10\n  jump\t// in\ntag_19:\n    /* \"#utility.yul\":483:488   */\n  dup2\n    /* \"#utility.yul\":480:515   */\n  eq\n    /* \"#utility.yul\":470:533   */\n  tag_20\n  jumpi\n    /* \"#utility.yul\":529:530   */\n  0x00\n    /* \"#utility.yul\":526:527   */\n  0x00\n    /* \"#utility.yul\":519:531   */\n  revert\n    /* \"#utility.yul\":470:533   */\ntag_20:\n    /* \"#utility.yul\":417:539   */\n  pop\n  jump\t// out\n    /* \"#utility.yul\":545:688   */\ntag_12:\n    /* \"#utility.yul\":602:607   */\n  0x00\n    /* \"#utility.yul\":633:639   */\n  dup2\n    /* \"#utility.yul\":627:640   */\n  mload\n    /* \"#utility.yul\":618:640   */\n  swap1\n  pop\n    /* \"#utility.yul\":649:682   */\n  tag_22\n    /* \"#utility.yul\":676:681   */\n  dup2\n    /* \"#utility.yul\":649:682   */\n  tag_11\n  jump\t// in\ntag_22:\n    /* \"#utility.yul\":545:688   */\n  swap3\n  swap2\n  pop\n  pop\n  jump\t// out\n    /* \"#utility.yul\":694:1201   */\ntag_3:\n    /* \"#utility.yul\":773:779   */\n  0x00\n    /* \"#utility.yul\":781:787   */\n  0x00\n    /* \"#utility.yul\":830:832   */\n  0x40\n    /* \"#utility.yul\":818:827   */\n  dup4\n    /* \"#utility.yul\":809:816   */\n  dup6\n    /* \"#utility.yul\":805:828   */\n  sub\n    /* \"#utility.yul\":801:833   */\n  slt\n    /* \"#utility.yul\":798:917   */\n  iszero\n  tag_24\n  jumpi\n    /* \"#utility.yul\":836:915   */\n  tag_25\n  tag_8\n  jump\t// in\ntag_25:\n    /* \"#utility.yul\":798:917   */\ntag_24:\n    /* \"#utility.yul\":956:957   */\n  0x00\n    /* \"#utility.yul\":981:1045   */\n  tag_26\n    /* \"#utility.yul\":1037:1044   */\n  dup6\n    /* \"#utility.yul\":1028:1034   */\n  dup3\n    /* \"#utility.yul\":1017:1026   */\n  dup7\n    /* \"#utility.yul\":1013:1035   */\n  add\n    /* \"#utility.yul\":981:1045   */\n  tag_12\n  jump\t// in\ntag_26:\n    /* \"#utility.yul\":971:1045   */\n  swap3\n  pop\n    /* \"#utility.yul\":927:1055   */\n  pop\n    /* \"#utility.yul\":1094:1096   */\n  0x20\n    /* \"#utility.yul\":1120:1184   */\n  tag_27\n    /* \"#utility.yul\":1176:1183   */\n  dup6\n    /* \"#utility.yul\":1167:1173   */\n  dup3\n    /* \"#utility.yul\":1156:1165   */\n  dup7\n    /* \"#utility.yul\":1152:1174   */\n  add\n    /* \"#utility.yul\":1120:1184   */\n  tag_12\n  jump\t// in\ntag_27:\n    /* \"#utility.yul\":1110:1184   */\n  swap2\n  pop\n    /* \"#utility.yul\":1065:1194   */\n  pop\n    /* \"#utility.yul\":694:1201   */\n  swap3\n  pop\n  swap3\n  swap1\n  pop\n  jump\t// out\n    /* \"contracts/kipu-bank.sol\":127:4543  contract KipuBank {... */\ntag_6:\n  mload(0x80)\n  mload(0xa0)\n  codecopy(0x00, dataOffset(sub_0), dataSize(sub_0))\n  0x00\n  assignImmutable(\"0x939eb54753ed0cc7e2272bfb34cbe098308c93936ed54d79078f76ade0b2e789\")\n  0x00\n  assignImmutable(\"0x277ab82e5a4641341820a4a2933a62c1de997e42e92548657ae21b3728d580fe\")\n  return(0x00, dataSize(sub_0))\nstop\n\nsub_0: assembly {\n        /* \"contracts/kipu-bank.sol\":127:4543  contract KipuBank {... */\n      mstore(0x40, 0x80)\n      jumpi(tag_1, lt(calldatasize, 0x04))\n      shr(0xe0, calldataload(0x00))\n      dup1\n      0xe2eec9a7\n      gt\n      tag_9\n      jumpi\n      dup1\n      0xe2eec9a7\n      eq\n      tag_5\n      jumpi\n      dup1\n      0xe32581eb\n      eq\n      tag_6\n      jumpi\n      dup1\n      0xf239d18a\n      eq\n      tag_7\n      jumpi\n      dup1\n      0xf5202a99\n      eq\n      tag_8\n      jumpi\n      jump(tag_1)\n    tag_9:\n      dup1\n      0x3d922f90\n      eq\n      tag_2\n      jumpi\n      dup1\n      0x808402ce\n      eq\n      tag_3\n      jumpi\n      dup1\n      0xbc896d53\n      eq\n      tag_4\n      jumpi\n    tag_1:\n      revert(0x00, 0x00)\n        /* \"contracts/kipu-bank.sol\":3604:4042  function depositar () external payable {... */\n    tag_2:\n      tag_10\n      tag_11\n      jump\t// in\n    tag_10:\n      stop\n        /* \"contracts/kipu-bank.sol\":821:859  uint256 public immutable i_limitRetiro */\n    tag_3:\n      callvalue\n      dup1\n      iszero\n      tag_12\n      jumpi\n      revert(0x00, 0x00)\n    tag_12:\n      pop\n      tag_13\n      tag_14\n      jump\t// in\n    tag_13:\n      mload(0x40)\n      tag_15\n      swap2\n      swap1\n      tag_16\n      jump\t// in\n    tag_15:\n      mload(0x40)\n      dup1\n      swap2\n      sub\n      swap1\n      return\n        /* \"contracts/kipu-bank.sol\":2863:3509  function retiro (uint256 _cantidad) external {... */\n    tag_4:\n      callvalue\n      dup1\n      iszero\n      tag_17\n      jumpi\n      revert(0x00, 0x00)\n    tag_17:\n      pop\n      tag_18\n      0x04\n      dup1\n      calldatasize\n      sub\n      dup2\n      add\n      swap1\n      tag_19\n      swap2\n      swap1\n      tag_20\n      jump\t// in\n    tag_19:\n      tag_21\n      jump\t// in\n    tag_18:\n      stop\n        /* \"contracts/kipu-bank.sol\":4140:4237  function getSaldo() public view returns (uint256) {... */\n    tag_5:\n      callvalue\n      dup1\n      iszero\n      tag_22\n      jumpi\n      revert(0x00, 0x00)\n    tag_22:\n      pop\n      tag_23\n      tag_24\n      jump\t// in\n    tag_23:\n      mload(0x40)\n      tag_25\n      swap2\n      swap1\n      tag_16\n      jump\t// in\n    tag_25:\n      mload(0x40)\n      dup1\n      swap2\n      sub\n      swap1\n      return\n        /* \"contracts/kipu-bank.sol\":571:599  uint256 public s_cantRetiros */\n    tag_6:\n      callvalue\n      dup1\n      iszero\n      tag_26\n      jumpi\n      revert(0x00, 0x00)\n    tag_26:\n      pop\n      tag_27\n      tag_28\n      jump\t// in\n    tag_27:\n      mload(0x40)\n      tag_29\n      swap2\n      swap1\n      tag_16\n      jump\t// in\n    tag_29:\n      mload(0x40)\n      dup1\n      swap2\n      sub\n      swap1\n      return\n        /* \"contracts/kipu-bank.sol\":680:725  uint256 public immutable i_limitValorDeposito */\n    tag_7:\n      callvalue\n      dup1\n      iszero\n      tag_30\n      jumpi\n      revert(0x00, 0x00)\n    tag_30:\n      pop\n      tag_31\n      tag_32\n      jump\t// in\n    tag_31:\n      mload(0x40)\n      tag_33\n      swap2\n      swap1\n      tag_16\n      jump\t// in\n    tag_33:\n      mload(0x40)\n      dup1\n      swap2\n      sub\n      swap1\n      return\n        /* \"contracts/kipu-bank.sol\":463:493  uint256 public s_cantDepositos */\n    tag_8:\n      callvalue\n      dup1\n      iszero\n      tag_34\n      jumpi\n      revert(0x00, 0x00)\n    tag_34:\n      pop\n      tag_35\n      tag_36\n      jump\t// in\n    tag_35:\n      mload(0x40)\n      tag_37\n      swap2\n      swap1\n      tag_16\n      jump\t// in\n    tag_37:\n      mload(0x40)\n      dup1\n      swap2\n      sub\n      swap1\n      return\n        /* \"contracts/kipu-bank.sol\":3604:4042  function depositar () external payable {... */\n    tag_11:\n        /* \"contracts/kipu-bank.sol\":3700:3720  i_limitValorDeposito */\n      immutable(\"0x277ab82e5a4641341820a4a2933a62c1de997e42e92548657ae21b3728d580fe\")\n        /* \"contracts/kipu-bank.sol\":3676:3697  address(this).balance */\n      selfbalance\n        /* \"contracts/kipu-bank.sol\":3676:3720  address(this).balance > i_limitValorDeposito */\n      gt\n        /* \"contracts/kipu-bank.sol\":3672:3860  if (address(this).balance > i_limitValorDeposito) {... */\n      iszero\n      tag_39\n      jumpi\n        /* \"contracts/kipu-bank.sol\":3781:3790  msg.value */\n      callvalue\n        /* \"contracts/kipu-bank.sol\":3816:3825  msg.value */\n      callvalue\n        /* \"contracts/kipu-bank.sol\":3792:3813  address(this).balance */\n      selfbalance\n        /* \"contracts/kipu-bank.sol\":3792:3825  address(this).balance - msg.value */\n      tag_40\n      swap2\n      swap1\n      tag_41\n      jump\t// in\n    tag_40:\n        /* \"contracts/kipu-bank.sol\":3827:3847  i_limitValorDeposito */\n      immutable(\"0x277ab82e5a4641341820a4a2933a62c1de997e42e92548657ae21b3728d580fe\")\n        /* \"contracts/kipu-bank.sol\":3748:3848  KipuBank_LimiteBancarioExcedido (msg.value, address(this).balance - msg.value, i_limitValorDeposito) */\n      mload(0x40)\n      0x81e441e500000000000000000000000000000000000000000000000000000000\n      dup2\n      mstore\n      0x04\n      add\n      tag_42\n      swap4\n      swap3\n      swap2\n      swap1\n      tag_43\n      jump\t// in\n    tag_42:\n      mload(0x40)\n      dup1\n      swap2\n      sub\n      swap1\n      revert\n        /* \"contracts/kipu-bank.sol\":3672:3860  if (address(this).balance > i_limitValorDeposito) {... */\n    tag_39:\n        /* \"contracts/kipu-bank.sol\":3915:3924  msg.value */\n      callvalue\n        /* \"contracts/kipu-bank.sol\":3891:3899  s_saldos */\n      0x00\n        /* \"contracts/kipu-bank.sol\":3891:3911  s_saldos[msg.sender] */\n      0x00\n        /* \"contracts/kipu-bank.sol\":3900:3910  msg.sender */\n      caller\n        /* \"contracts/kipu-bank.sol\":3891:3911  s_saldos[msg.sender] */\n      0xffffffffffffffffffffffffffffffffffffffff\n      and\n      0xffffffffffffffffffffffffffffffffffffffff\n      and\n      dup2\n      mstore\n      0x20\n      add\n      swap1\n      dup2\n      mstore\n      0x20\n      add\n      0x00\n      keccak256\n      0x00\n        /* \"contracts/kipu-bank.sol\":3891:3924  s_saldos[msg.sender] += msg.value */\n      dup3\n      dup3\n      sload\n      tag_44\n      swap2\n      swap1\n      tag_45\n      jump\t// in\n    tag_44:\n      swap3\n      pop\n      pop\n      dup2\n      swap1\n      sstore\n      pop\n        /* \"contracts/kipu-bank.sol\":3935:3950  s_cantDepositos */\n      0x01\n      0x00\n        /* \"contracts/kipu-bank.sol\":3935:3952  s_cantDepositos++ */\n      dup2\n      sload\n      dup1\n      swap3\n      swap2\n      swap1\n      tag_46\n      swap1\n      tag_47\n      jump\t// in\n    tag_46:\n      swap2\n      swap1\n      pop\n      sstore\n      pop\n        /* \"contracts/kipu-bank.sol\":3994:4034  KipuBank_Deposito(msg.sender, msg.value) */\n      0x446ddf6e906b87ec964d4548644b2f3abc3fa05b316fb0b8ee6ea5fb5bd37a41\n        /* \"contracts/kipu-bank.sol\":4012:4022  msg.sender */\n      caller\n        /* \"contracts/kipu-bank.sol\":4024:4033  msg.value */\n      callvalue\n        /* \"contracts/kipu-bank.sol\":3994:4034  KipuBank_Deposito(msg.sender, msg.value) */\n      mload(0x40)\n      tag_48\n      swap3\n      swap2\n      swap1\n      tag_49\n      jump\t// in\n    tag_48:\n      mload(0x40)\n      dup1\n      swap2\n      sub\n      swap1\n      log1\n        /* \"contracts/kipu-bank.sol\":3604:4042  function depositar () external payable {... */\n      jump\t// out\n        /* \"contracts/kipu-bank.sol\":821:859  uint256 public immutable i_limitRetiro */\n    tag_14:\n      immutable(\"0x939eb54753ed0cc7e2272bfb34cbe098308c93936ed54d79078f76ade0b2e789\")\n      dup2\n      jump\t// out\n        /* \"contracts/kipu-bank.sol\":2863:3509  function retiro (uint256 _cantidad) external {... */\n    tag_21:\n        /* \"contracts/kipu-bank.sol\":2952:2965  i_limitRetiro */\n      immutable(\"0x939eb54753ed0cc7e2272bfb34cbe098308c93936ed54d79078f76ade0b2e789\")\n        /* \"contracts/kipu-bank.sol\":2940:2949  _cantidad */\n      dup2\n        /* \"contracts/kipu-bank.sol\":2940:2965  _cantidad > i_limitRetiro */\n      gt\n        /* \"contracts/kipu-bank.sol\":2936:3060  if (_cantidad > i_limitRetiro) {... */\n      iszero\n      tag_51\n      jumpi\n        /* \"contracts/kipu-bank.sol\":3023:3032  _cantidad */\n      dup1\n        /* \"contracts/kipu-bank.sol\":3034:3047  i_limitRetiro */\n      immutable(\"0x939eb54753ed0cc7e2272bfb34cbe098308c93936ed54d79078f76ade0b2e789\")\n        /* \"contracts/kipu-bank.sol\":2993:3048  KipuBank_LimiteExcedidoRetiro(_cantidad, i_limitRetiro) */\n      mload(0x40)\n      0x0676560a00000000000000000000000000000000000000000000000000000000\n      dup2\n      mstore\n      0x04\n      add\n      tag_52\n      swap3\n      swap2\n      swap1\n      tag_53\n      jump\t// in\n    tag_52:\n      mload(0x40)\n      dup1\n      swap2\n      sub\n      swap1\n      revert\n        /* \"contracts/kipu-bank.sol\":2936:3060  if (_cantidad > i_limitRetiro) {... */\n    tag_51:\n        /* \"contracts/kipu-bank.sol\":3088:3096  s_saldos */\n      0x00\n        /* \"contracts/kipu-bank.sol\":3088:3108  s_saldos[msg.sender] */\n      0x00\n        /* \"contracts/kipu-bank.sol\":3097:3107  msg.sender */\n      caller\n        /* \"contracts/kipu-bank.sol\":3088:3108  s_saldos[msg.sender] */\n      0xffffffffffffffffffffffffffffffffffffffff\n      and\n      0xffffffffffffffffffffffffffffffffffffffff\n      and\n      dup2\n      mstore\n      0x20\n      add\n      swap1\n      dup2\n      mstore\n      0x20\n      add\n      0x00\n      keccak256\n      sload\n        /* \"contracts/kipu-bank.sol\":3076:3085  _cantidad */\n      dup2\n        /* \"contracts/kipu-bank.sol\":3076:3108  _cantidad > s_saldos[msg.sender] */\n      gt\n        /* \"contracts/kipu-bank.sol\":3072:3208  if (_cantidad > s_saldos[msg.sender]) {... */\n      iszero\n      tag_54\n      jumpi\n        /* \"contracts/kipu-bank.sol\":3164:3173  _cantidad */\n      dup1\n        /* \"contracts/kipu-bank.sol\":3175:3183  s_saldos */\n      0x00\n        /* \"contracts/kipu-bank.sol\":3175:3195  s_saldos[msg.sender] */\n      0x00\n        /* \"contracts/kipu-bank.sol\":3184:3194  msg.sender */\n      caller\n        /* \"contracts/kipu-bank.sol\":3175:3195  s_saldos[msg.sender] */\n      0xffffffffffffffffffffffffffffffffffffffff\n      and\n      0xffffffffffffffffffffffffffffffffffffffff\n      and\n      dup2\n      mstore\n      0x20\n      add\n      swap1\n      dup2\n      mstore\n      0x20\n      add\n      0x00\n      keccak256\n      sload\n        /* \"contracts/kipu-bank.sol\":3136:3196  KipuBank_SaldoInsuficiente (_cantidad, s_saldos[msg.sender]) */\n      mload(0x40)\n      0x402fa76800000000000000000000000000000000000000000000000000000000\n      dup2\n      mstore\n      0x04\n      add\n      tag_55\n      swap3\n      swap2\n      swap1\n      tag_53\n      jump\t// in\n    tag_55:\n      mload(0x40)\n      dup1\n      swap2\n      sub\n      swap1\n      revert\n        /* \"contracts/kipu-bank.sol\":3072:3208  if (_cantidad > s_saldos[msg.sender]) {... */\n    tag_54:\n        /* \"contracts/kipu-bank.sol\":3263:3272  _cantidad */\n      dup1\n        /* \"contracts/kipu-bank.sol\":3239:3247  s_saldos */\n      0x00\n        /* \"contracts/kipu-bank.sol\":3239:3259  s_saldos[msg.sender] */\n      0x00\n        /* \"contracts/kipu-bank.sol\":3248:3258  msg.sender */\n      caller\n        /* \"contracts/kipu-bank.sol\":3239:3259  s_saldos[msg.sender] */\n      0xffffffffffffffffffffffffffffffffffffffff\n      and\n      0xffffffffffffffffffffffffffffffffffffffff\n      and\n      dup2\n      mstore\n      0x20\n      add\n      swap1\n      dup2\n      mstore\n      0x20\n      add\n      0x00\n      keccak256\n      0x00\n        /* \"contracts/kipu-bank.sol\":3239:3272  s_saldos[msg.sender] -= _cantidad */\n      dup3\n      dup3\n      sload\n      tag_56\n      swap2\n      swap1\n      tag_41\n      jump\t// in\n    tag_56:\n      swap3\n      pop\n      pop\n      dup2\n      swap1\n      sstore\n      pop\n        /* \"contracts/kipu-bank.sol\":3283:3296  s_cantRetiros */\n      0x02\n      0x00\n        /* \"contracts/kipu-bank.sol\":3283:3298  s_cantRetiros++ */\n      dup2\n      sload\n      dup1\n      swap3\n      swap2\n      swap1\n      tag_57\n      swap1\n      tag_47\n      jump\t// in\n    tag_57:\n      swap2\n      swap1\n      pop\n      sstore\n      pop\n        /* \"contracts/kipu-bank.sol\":3336:3348  bool success */\n      0x00\n        /* \"contracts/kipu-bank.sol\":3353:3363  msg.sender */\n      caller\n        /* \"contracts/kipu-bank.sol\":3353:3368  msg.sender.call */\n      0xffffffffffffffffffffffffffffffffffffffff\n      and\n        /* \"contracts/kipu-bank.sol\":3376:3385  _cantidad */\n      dup3\n        /* \"contracts/kipu-bank.sol\":3353:3390  msg.sender.call {value:_cantidad}(\"\") */\n      mload(0x40)\n      tag_58\n      swap1\n      tag_59\n      jump\t// in\n    tag_58:\n      0x00\n      mload(0x40)\n      dup1\n      dup4\n      sub\n      dup2\n      dup6\n      dup8\n      gas\n      call\n      swap3\n      pop\n      pop\n      pop\n      returndatasize\n      dup1\n      0x00\n      dup2\n      eq\n      tag_62\n      jumpi\n      mload(0x40)\n      swap2\n      pop\n      and(add(returndatasize, 0x3f), not(0x1f))\n      dup3\n      add\n      0x40\n      mstore\n      returndatasize\n      dup3\n      mstore\n      returndatasize\n      0x00\n      0x20\n      dup5\n      add\n      returndatacopy\n      jump(tag_61)\n    tag_62:\n      0x60\n      swap2\n      pop\n    tag_61:\n      pop\n        /* \"contracts/kipu-bank.sol\":3335:3390  (bool success,) = msg.sender.call {value:_cantidad}(\"\") */\n      pop\n      swap1\n      pop\n        /* \"contracts/kipu-bank.sol\":3409:3416  success */\n      dup1\n        /* \"contracts/kipu-bank.sol\":3401:3445  require(success, \"Fallo el envio del saldo\") */\n      tag_63\n      jumpi\n      mload(0x40)\n      0x08c379a000000000000000000000000000000000000000000000000000000000\n      dup2\n      mstore\n      0x04\n      add\n      tag_64\n      swap1\n      tag_65\n      jump\t// in\n    tag_64:\n      mload(0x40)\n      dup1\n      swap2\n      sub\n      swap1\n      revert\n    tag_63:\n        /* \"contracts/kipu-bank.sol\":3463:3501  KipuBank_Retiro(msg.sender, _cantidad) */\n      0xa409e9174b606c22c983922e33fb50acacca16d8f380f32b8ea00fcef9326fda\n        /* \"contracts/kipu-bank.sol\":3479:3489  msg.sender */\n      caller\n        /* \"contracts/kipu-bank.sol\":3491:3500  _cantidad */\n      dup4\n        /* \"contracts/kipu-bank.sol\":3463:3501  KipuBank_Retiro(msg.sender, _cantidad) */\n      mload(0x40)\n      tag_66\n      swap3\n      swap2\n      swap1\n      tag_49\n      jump\t// in\n    tag_66:\n      mload(0x40)\n      dup1\n      swap2\n      sub\n      swap1\n      log1\n        /* \"contracts/kipu-bank.sol\":2908:3509  {... */\n      pop\n        /* \"contracts/kipu-bank.sol\":2863:3509  function retiro (uint256 _cantidad) external {... */\n      pop\n      jump\t// out\n        /* \"contracts/kipu-bank.sol\":4140:4237  function getSaldo() public view returns (uint256) {... */\n    tag_24:\n        /* \"contracts/kipu-bank.sol\":4181:4188  uint256 */\n      0x00\n        /* \"contracts/kipu-bank.sol\":4208:4229  _getSaldo(msg.sender) */\n      tag_68\n        /* \"contracts/kipu-bank.sol\":4218:4228  msg.sender */\n      caller\n        /* \"contracts/kipu-bank.sol\":4208:4217  _getSaldo */\n      tag_69\n        /* \"contracts/kipu-bank.sol\":4208:4229  _getSaldo(msg.sender) */\n      jump\t// in\n    tag_68:\n        /* \"contracts/kipu-bank.sol\":4201:4229  return _getSaldo(msg.sender) */\n      swap1\n      pop\n        /* \"contracts/kipu-bank.sol\":4140:4237  function getSaldo() public view returns (uint256) {... */\n      swap1\n      jump\t// out\n        /* \"contracts/kipu-bank.sol\":571:599  uint256 public s_cantRetiros */\n    tag_28:\n      sload(0x02)\n      dup2\n      jump\t// out\n        /* \"contracts/kipu-bank.sol\":680:725  uint256 public immutable i_limitValorDeposito */\n    tag_32:\n      immutable(\"0x277ab82e5a4641341820a4a2933a62c1de997e42e92548657ae21b3728d580fe\")\n      dup2\n      jump\t// out\n        /* \"contracts/kipu-bank.sol\":463:493  uint256 public s_cantDepositos */\n    tag_36:\n      sload(0x01)\n      dup2\n      jump\t// out\n        /* \"contracts/kipu-bank.sol\":4423:4536  function _getSaldo (address _usuario) private view returns (uint256) {... */\n    tag_69:\n        /* \"contracts/kipu-bank.sol\":4483:4490  uint256 */\n      0x00\n        /* \"contracts/kipu-bank.sol\":4510:4518  s_saldos */\n      0x00\n        /* \"contracts/kipu-bank.sol\":4510:4528  s_saldos[_usuario] */\n      0x00\n        /* \"contracts/kipu-bank.sol\":4519:4527  _usuario */\n      dup4\n        /* \"contracts/kipu-bank.sol\":4510:4528  s_saldos[_usuario] */\n      0xffffffffffffffffffffffffffffffffffffffff\n      and\n      0xffffffffffffffffffffffffffffffffffffffff\n      and\n      dup2\n      mstore\n      0x20\n      add\n      swap1\n      dup2\n      mstore\n      0x20\n      add\n      0x00\n      keccak256\n      sload\n        /* \"contracts/kipu-bank.sol\":4503:4528  return s_saldos[_usuario] */\n      swap1\n      pop\n        /* \"contracts/kipu-bank.sol\":4423:4536  function _getSaldo (address _usuario) private view returns (uint256) {... */\n      swap2\n      swap1\n      pop\n      jump\t// out\n        /* \"#utility.yul\":7:84   */\n    tag_71:\n        /* \"#utility.yul\":44:51   */\n      0x00\n        /* \"#utility.yul\":73:78   */\n      dup2\n        /* \"#utility.yul\":62:78   */\n      swap1\n      pop\n        /* \"#utility.yul\":7:84   */\n      swap2\n      swap1\n      pop\n      jump\t// out\n        /* \"#utility.yul\":90:208   */\n    tag_72:\n        /* \"#utility.yul\":177:201   */\n      tag_91\n        /* \"#utility.yul\":195:200   */\n      dup2\n        /* \"#utility.yul\":177:201   */\n      tag_71\n      jump\t// in\n    tag_91:\n        /* \"#utility.yul\":172:175   */\n      dup3\n        /* \"#utility.yul\":165:202   */\n      mstore\n        /* \"#utility.yul\":90:208   */\n      pop\n      pop\n      jump\t// out\n        /* \"#utility.yul\":214:436   */\n    tag_16:\n        /* \"#utility.yul\":307:311   */\n      0x00\n        /* \"#utility.yul\":345:347   */\n      0x20\n        /* \"#utility.yul\":334:343   */\n      dup3\n        /* \"#utility.yul\":330:348   */\n      add\n        /* \"#utility.yul\":322:348   */\n      swap1\n      pop\n        /* \"#utility.yul\":358:429   */\n      tag_93\n        /* \"#utility.yul\":426:427   */\n      0x00\n        /* \"#utility.yul\":415:424   */\n      dup4\n        /* \"#utility.yul\":411:428   */\n      add\n        /* \"#utility.yul\":402:408   */\n      dup5\n        /* \"#utility.yul\":358:429   */\n      tag_72\n      jump\t// in\n    tag_93:\n        /* \"#utility.yul\":214:436   */\n      swap3\n      swap2\n      pop\n      pop\n      jump\t// out\n        /* \"#utility.yul\":523:640   */\n    tag_74:\n        /* \"#utility.yul\":632:633   */\n      0x00\n        /* \"#utility.yul\":629:630   */\n      0x00\n        /* \"#utility.yul\":622:634   */\n      revert\n        /* \"#utility.yul\":769:891   */\n    tag_76:\n        /* \"#utility.yul\":842:866   */\n      tag_98\n        /* \"#utility.yul\":860:865   */\n      dup2\n        /* \"#utility.yul\":842:866   */\n      tag_71\n      jump\t// in\n    tag_98:\n        /* \"#utility.yul\":835:840   */\n      dup2\n        /* \"#utility.yul\":832:867   */\n      eq\n        /* \"#utility.yul\":822:885   */\n      tag_99\n      jumpi\n        /* \"#utility.yul\":881:882   */\n      0x00\n        /* \"#utility.yul\":878:879   */\n      0x00\n        /* \"#utility.yul\":871:883   */\n      revert\n        /* \"#utility.yul\":822:885   */\n    tag_99:\n        /* \"#utility.yul\":769:891   */\n      pop\n      jump\t// out\n        /* \"#utility.yul\":897:1036   */\n    tag_77:\n        /* \"#utility.yul\":943:948   */\n      0x00\n        /* \"#utility.yul\":981:987   */\n      dup2\n        /* \"#utility.yul\":968:988   */\n      calldataload\n        /* \"#utility.yul\":959:988   */\n      swap1\n      pop\n        /* \"#utility.yul\":997:1030   */\n      tag_101\n        /* \"#utility.yul\":1024:1029   */\n      dup2\n        /* \"#utility.yul\":997:1030   */\n      tag_76\n      jump\t// in\n    tag_101:\n        /* \"#utility.yul\":897:1036   */\n      swap3\n      swap2\n      pop\n      pop\n      jump\t// out\n        /* \"#utility.yul\":1042:1371   */\n    tag_20:\n        /* \"#utility.yul\":1101:1107   */\n      0x00\n        /* \"#utility.yul\":1150:1152   */\n      0x20\n        /* \"#utility.yul\":1138:1147   */\n      dup3\n        /* \"#utility.yul\":1129:1136   */\n      dup5\n        /* \"#utility.yul\":1125:1148   */\n      sub\n        /* \"#utility.yul\":1121:1153   */\n      slt\n        /* \"#utility.yul\":1118:1237   */\n      iszero\n      tag_103\n      jumpi\n        /* \"#utility.yul\":1156:1235   */\n      tag_104\n      tag_74\n      jump\t// in\n    tag_104:\n        /* \"#utility.yul\":1118:1237   */\n    tag_103:\n        /* \"#utility.yul\":1276:1277   */\n      0x00\n        /* \"#utility.yul\":1301:1354   */\n      tag_105\n        /* \"#utility.yul\":1346:1353   */\n      dup5\n        /* \"#utility.yul\":1337:1343   */\n      dup3\n        /* \"#utility.yul\":1326:1335   */\n      dup6\n        /* \"#utility.yul\":1322:1344   */\n      add\n        /* \"#utility.yul\":1301:1354   */\n      tag_77\n      jump\t// in\n    tag_105:\n        /* \"#utility.yul\":1291:1354   */\n      swap2\n      pop\n        /* \"#utility.yul\":1247:1364   */\n      pop\n        /* \"#utility.yul\":1042:1371   */\n      swap3\n      swap2\n      pop\n      pop\n      jump\t// out\n        /* \"#utility.yul\":1377:1557   */\n    tag_78:\n        /* \"#utility.yul\":1425:1502   */\n      0x4e487b7100000000000000000000000000000000000000000000000000000000\n        /* \"#utility.yul\":1422:1423   */\n      0x00\n        /* \"#utility.yul\":1415:1503   */\n      mstore\n        /* \"#utility.yul\":1522:1526   */\n      0x11\n        /* \"#utility.yul\":1519:1520   */\n      0x04\n        /* \"#utility.yul\":1512:1527   */\n      mstore\n        /* \"#utility.yul\":1546:1550   */\n      0x24\n        /* \"#utility.yul\":1543:1544   */\n      0x00\n        /* \"#utility.yul\":1536:1551   */\n      revert\n        /* \"#utility.yul\":1563:1757   */\n    tag_41:\n        /* \"#utility.yul\":1603:1607   */\n      0x00\n        /* \"#utility.yul\":1623:1643   */\n      tag_108\n        /* \"#utility.yul\":1641:1642   */\n      dup3\n        /* \"#utility.yul\":1623:1643   */\n      tag_71\n      jump\t// in\n    tag_108:\n        /* \"#utility.yul\":1618:1643   */\n      swap2\n      pop\n        /* \"#utility.yul\":1657:1677   */\n      tag_109\n        /* \"#utility.yul\":1675:1676   */\n      dup4\n        /* \"#utility.yul\":1657:1677   */\n      tag_71\n      jump\t// in\n    tag_109:\n        /* \"#utility.yul\":1652:1677   */\n      swap3\n      pop\n        /* \"#utility.yul\":1701:1702   */\n      dup3\n        /* \"#utility.yul\":1698:1699   */\n      dup3\n        /* \"#utility.yul\":1694:1703   */\n      sub\n        /* \"#utility.yul\":1686:1703   */\n      swap1\n      pop\n        /* \"#utility.yul\":1725:1726   */\n      dup2\n        /* \"#utility.yul\":1719:1723   */\n      dup2\n        /* \"#utility.yul\":1716:1727   */\n      gt\n        /* \"#utility.yul\":1713:1750   */\n      iszero\n      tag_110\n      jumpi\n        /* \"#utility.yul\":1730:1748   */\n      tag_111\n      tag_78\n      jump\t// in\n    tag_111:\n        /* \"#utility.yul\":1713:1750   */\n    tag_110:\n        /* \"#utility.yul\":1563:1757   */\n      swap3\n      swap2\n      pop\n      pop\n      jump\t// out\n        /* \"#utility.yul\":1763:2205   */\n    tag_43:\n        /* \"#utility.yul\":1912:1916   */\n      0x00\n        /* \"#utility.yul\":1950:1952   */\n      0x60\n        /* \"#utility.yul\":1939:1948   */\n      dup3\n        /* \"#utility.yul\":1935:1953   */\n      add\n        /* \"#utility.yul\":1927:1953   */\n      swap1\n      pop\n        /* \"#utility.yul\":1963:2034   */\n      tag_113\n        /* \"#utility.yul\":2031:2032   */\n      0x00\n        /* \"#utility.yul\":2020:2029   */\n      dup4\n        /* \"#utility.yul\":2016:2033   */\n      add\n        /* \"#utility.yul\":2007:2013   */\n      dup7\n        /* \"#utility.yul\":1963:2034   */\n      tag_72\n      jump\t// in\n    tag_113:\n        /* \"#utility.yul\":2044:2116   */\n      tag_114\n        /* \"#utility.yul\":2112:2114   */\n      0x20\n        /* \"#utility.yul\":2101:2110   */\n      dup4\n        /* \"#utility.yul\":2097:2115   */\n      add\n        /* \"#utility.yul\":2088:2094   */\n      dup6\n        /* \"#utility.yul\":2044:2116   */\n      tag_72\n      jump\t// in\n    tag_114:\n        /* \"#utility.yul\":2126:2198   */\n      tag_115\n        /* \"#utility.yul\":2194:2196   */\n      0x40\n        /* \"#utility.yul\":2183:2192   */\n      dup4\n        /* \"#utility.yul\":2179:2197   */\n      add\n        /* \"#utility.yul\":2170:2176   */\n      dup5\n        /* \"#utility.yul\":2126:2198   */\n      tag_72\n      jump\t// in\n    tag_115:\n        /* \"#utility.yul\":1763:2205   */\n      swap5\n      swap4\n      pop\n      pop\n      pop\n      pop\n      jump\t// out\n        /* \"#utility.yul\":2211:2402   */\n    tag_45:\n        /* \"#utility.yul\":2251:2254   */\n      0x00\n        /* \"#utility.yul\":2270:2290   */\n      tag_117\n        /* \"#utility.yul\":2288:2289   */\n      dup3\n        /* \"#utility.yul\":2270:2290   */\n      tag_71\n      jump\t// in\n    tag_117:\n        /* \"#utility.yul\":2265:2290   */\n      swap2\n      pop\n        /* \"#utility.yul\":2304:2324   */\n      tag_118\n        /* \"#utility.yul\":2322:2323   */\n      dup4\n        /* \"#utility.yul\":2304:2324   */\n      tag_71\n      jump\t// in\n    tag_118:\n        /* \"#utility.yul\":2299:2324   */\n      swap3\n      pop\n        /* \"#utility.yul\":2347:2348   */\n      dup3\n        /* \"#utility.yul\":2344:2345   */\n      dup3\n        /* \"#utility.yul\":2340:2349   */\n      add\n        /* \"#utility.yul\":2333:2349   */\n      swap1\n      pop\n        /* \"#utility.yul\":2368:2371   */\n      dup1\n        /* \"#utility.yul\":2365:2366   */\n      dup3\n        /* \"#utility.yul\":2362:2372   */\n      gt\n        /* \"#utility.yul\":2359:2395   */\n      iszero\n      tag_119\n      jumpi\n        /* \"#utility.yul\":2375:2393   */\n      tag_120\n      tag_78\n      jump\t// in\n    tag_120:\n        /* \"#utility.yul\":2359:2395   */\n    tag_119:\n        /* \"#utility.yul\":2211:2402   */\n      swap3\n      swap2\n      pop\n      pop\n      jump\t// out\n        /* \"#utility.yul\":2408:2641   */\n    tag_47:\n        /* \"#utility.yul\":2447:2450   */\n      0x00\n        /* \"#utility.yul\":2470:2494   */\n      tag_122\n        /* \"#utility.yul\":2488:2493   */\n      dup3\n        /* \"#utility.yul\":2470:2494   */\n      tag_71\n      jump\t// in\n    tag_122:\n        /* \"#utility.yul\":2461:2494   */\n      swap2\n      pop\n        /* \"#utility.yul\":2516:2582   */\n      0xffffffffffffffffffffffffffffffffffffffffffffffffffffffffffffffff\n        /* \"#utility.yul\":2509:2514   */\n      dup3\n        /* \"#utility.yul\":2506:2583   */\n      sub\n        /* \"#utility.yul\":2503:2606   */\n      tag_123\n      jumpi\n        /* \"#utility.yul\":2586:2604   */\n      tag_124\n      tag_78\n      jump\t// in\n    tag_124:\n        /* \"#utility.yul\":2503:2606   */\n    tag_123:\n        /* \"#utility.yul\":2633:2634   */\n      0x01\n        /* \"#utility.yul\":2626:2631   */\n      dup3\n        /* \"#utility.yul\":2622:2635   */\n      add\n        /* \"#utility.yul\":2615:2635   */\n      swap1\n      pop\n        /* \"#utility.yul\":2408:2641   */\n      swap2\n      swap1\n      pop\n      jump\t// out\n        /* \"#utility.yul\":2647:2773   */\n    tag_79:\n        /* \"#utility.yul\":2684:2691   */\n      0x00\n        /* \"#utility.yul\":2724:2766   */\n      0xffffffffffffffffffffffffffffffffffffffff\n        /* \"#utility.yul\":2717:2722   */\n      dup3\n        /* \"#utility.yul\":2713:2767   */\n      and\n        /* \"#utility.yul\":2702:2767   */\n      swap1\n      pop\n        /* \"#utility.yul\":2647:2773   */\n      swap2\n      swap1\n      pop\n      jump\t// out\n        /* \"#utility.yul\":2779:2875   */\n    tag_80:\n        /* \"#utility.yul\":2816:2823   */\n      0x00\n        /* \"#utility.yul\":2845:2869   */\n      tag_127\n        /* \"#utility.yul\":2863:2868   */\n      dup3\n        /* \"#utility.yul\":2845:2869   */\n      tag_79\n      jump\t// in\n    tag_127:\n        /* \"#utility.yul\":2834:2869   */\n      swap1\n      pop\n        /* \"#utility.yul\":2779:2875   */\n      swap2\n      swap1\n      pop\n      jump\t// out\n        /* \"#utility.yul\":2881:2999   */\n    tag_81:\n        /* \"#utility.yul\":2968:2992   */\n      tag_129\n        /* \"#utility.yul\":2986:2991   */\n      dup2\n        /* \"#utility.yul\":2968:2992   */\n      tag_80\n      jump\t// in\n    tag_129:\n        /* \"#utility.yul\":2963:2966   */\n      dup3\n        /* \"#utility.yul\":2956:2993   */\n      mstore\n        /* \"#utility.yul\":2881:2999   */\n      pop\n      pop\n      jump\t// out\n        /* \"#utility.yul\":3005:3337   */\n    tag_49:\n        /* \"#utility.yul\":3126:3130   */\n      0x00\n        /* \"#utility.yul\":3164:3166   */\n      0x40\n        /* \"#utility.yul\":3153:3162   */\n      dup3\n        /* \"#utility.yul\":3149:3167   */\n      add\n        /* \"#utility.yul\":3141:3167   */\n      swap1\n      pop\n        /* \"#utility.yul\":3177:3248   */\n      tag_131\n        /* \"#utility.yul\":3245:3246   */\n      0x00\n        /* \"#utility.yul\":3234:3243   */\n      dup4\n        /* \"#utility.yul\":3230:3247   */\n      add\n        /* \"#utility.yul\":3221:3227   */\n      dup6\n        /* \"#utility.yul\":3177:3248   */\n      tag_81\n      jump\t// in\n    tag_131:\n        /* \"#utility.yul\":3258:3330   */\n      tag_132\n        /* \"#utility.yul\":3326:3328   */\n      0x20\n        /* \"#utility.yul\":3315:3324   */\n      dup4\n        /* \"#utility.yul\":3311:3329   */\n      add\n        /* \"#utility.yul\":3302:3308   */\n      dup5\n        /* \"#utility.yul\":3258:3330   */\n      tag_72\n      jump\t// in\n    tag_132:\n        /* \"#utility.yul\":3005:3337   */\n      swap4\n      swap3\n      pop\n      pop\n      pop\n      jump\t// out\n        /* \"#utility.yul\":3343:3675   */\n    tag_53:\n        /* \"#utility.yul\":3464:3468   */\n      0x00\n        /* \"#utility.yul\":3502:3504   */\n      0x40\n        /* \"#utility.yul\":3491:3500   */\n      dup3\n        /* \"#utility.yul\":3487:3505   */\n      add\n        /* \"#utility.yul\":3479:3505   */\n      swap1\n      pop\n        /* \"#utility.yul\":3515:3586   */\n      tag_134\n        /* \"#utility.yul\":3583:3584   */\n      0x00\n        /* \"#utility.yul\":3572:3581   */\n      dup4\n        /* \"#utility.yul\":3568:3585   */\n      add\n        /* \"#utility.yul\":3559:3565   */\n      dup6\n        /* \"#utility.yul\":3515:3586   */\n      tag_72\n      jump\t// in\n    tag_134:\n        /* \"#utility.yul\":3596:3668   */\n      tag_135\n        /* \"#utility.yul\":3664:3666   */\n      0x20\n        /* \"#utility.yul\":3653:3662   */\n      dup4\n        /* \"#utility.yul\":3649:3667   */\n      add\n        /* \"#utility.yul\":3640:3646   */\n      dup5\n        /* \"#utility.yul\":3596:3668   */\n      tag_72\n      jump\t// in\n    tag_135:\n        /* \"#utility.yul\":3343:3675   */\n      swap4\n      swap3\n      pop\n      pop\n      pop\n      jump\t// out\n        /* \"#utility.yul\":3681:3828   */\n    tag_82:\n        /* \"#utility.yul\":3782:3793   */\n      0x00\n        /* \"#utility.yul\":3819:3822   */\n      dup2\n        /* \"#utility.yul\":3804:3822   */\n      swap1\n      pop\n        /* \"#utility.yul\":3681:3828   */\n      swap3\n      swap2\n      pop\n      pop\n      jump\t// out\n        /* \"#utility.yul\":3834:3948   */\n    tag_83:\n      pop\n      jump\t// out\n        /* \"#utility.yul\":3954:4352   */\n    tag_84:\n        /* \"#utility.yul\":4113:4116   */\n      0x00\n        /* \"#utility.yul\":4134:4217   */\n      tag_139\n        /* \"#utility.yul\":4215:4216   */\n      0x00\n        /* \"#utility.yul\":4210:4213   */\n      dup4\n        /* \"#utility.yul\":4134:4217   */\n      tag_82\n      jump\t// in\n    tag_139:\n        /* \"#utility.yul\":4127:4217   */\n      swap2\n      pop\n        /* \"#utility.yul\":4226:4319   */\n      tag_140\n        /* \"#utility.yul\":4315:4318   */\n      dup3\n        /* \"#utility.yul\":4226:4319   */\n      tag_83\n      jump\t// in\n    tag_140:\n        /* \"#utility.yul\":4344:4345   */\n      0x00\n        /* \"#utility.yul\":4339:4342   */\n      dup3\n        /* \"#utility.yul\":4335:4346   */\n      add\n        /* \"#utility.yul\":4328:4346   */\n      swap1\n      pop\n        /* \"#utility.yul\":3954:4352   */\n      swap2\n      swap1\n      pop\n      jump\t// out\n        /* \"#utility.yul\":4358:4737   */\n    tag_59:\n        /* \"#utility.yul\":4542:4545   */\n      0x00\n        /* \"#utility.yul\":4564:4711   */\n      tag_142\n        /* \"#utility.yul\":4707:4710   */\n      dup3\n        /* \"#utility.yul\":4564:4711   */\n      tag_84\n      jump\t// in\n    tag_142:\n        /* \"#utility.yul\":4557:4711   */\n      swap2\n      pop\n        /* \"#utility.yul\":4728:4731   */\n      dup2\n        /* \"#utility.yul\":4721:4731   */\n      swap1\n      pop\n        /* \"#utility.yul\":4358:4737   */\n      swap2\n      swap1\n      pop\n      jump\t// out\n        /* \"#utility.yul\":4743:4912   */\n    tag_85:\n        /* \"#utility.yul\":4827:4838   */\n      0x00\n        /* \"#utility.yul\":4861:4867   */\n      dup3\n        /* \"#utility.yul\":4856:4859   */\n      dup3\n        /* \"#utility.yul\":4849:4868   */\n      mstore\n        /* \"#utility.yul\":4901:4905   */\n      0x20\n        /* \"#utility.yul\":4896:4899   */\n      dup3\n        /* \"#utility.yul\":4892:4906   */\n      add\n        /* \"#utility.yul\":4877:4906   */\n      swap1\n      pop\n        /* \"#utility.yul\":4743:4912   */\n      swap3\n      swap2\n      pop\n      pop\n      jump\t// out\n        /* \"#utility.yul\":4918:5092   */\n    tag_86:\n        /* \"#utility.yul\":5058:5084   */\n      0x46616c6c6f20656c20656e76696f2064656c2073616c646f0000000000000000\n        /* \"#utility.yul\":5054:5055   */\n      0x00\n        /* \"#utility.yul\":5046:5052   */\n      dup3\n        /* \"#utility.yul\":5042:5056   */\n      add\n        /* \"#utility.yul\":5035:5085   */\n      mstore\n        /* \"#utility.yul\":4918:5092   */\n      pop\n      jump\t// out\n        /* \"#utility.yul\":5098:5464   */\n    tag_87:\n        /* \"#utility.yul\":5240:5243   */\n      0x00\n        /* \"#utility.yul\":5261:5328   */\n      tag_146\n        /* \"#utility.yul\":5325:5327   */\n      0x18\n        /* \"#utility.yul\":5320:5323   */\n      dup4\n        /* \"#utility.yul\":5261:5328   */\n      tag_85\n      jump\t// in\n    tag_146:\n        /* \"#utility.yul\":5254:5328   */\n      swap2\n      pop\n        /* \"#utility.yul\":5337:5430   */\n      tag_147\n        /* \"#utility.yul\":5426:5429   */\n      dup3\n        /* \"#utility.yul\":5337:5430   */\n      tag_86\n      jump\t// in\n    tag_147:\n        /* \"#utility.yul\":5455:5457   */\n      0x20\n        /* \"#utility.yul\":5450:5453   */\n      dup3\n        /* \"#utility.yul\":5446:5458   */\n      add\n        /* \"#utility.yul\":5439:5458   */\n      swap1\n      pop\n        /* \"#utility.yul\":5098:5464   */\n      swap2\n      swap1\n      pop\n      jump\t// out\n        /* \"#utility.yul\":5470:5889   */\n    tag_65:\n        /* \"#utility.yul\":5636:5640   */\n      0x00\n        /* \"#utility.yul\":5674:5676   */\n      0x20\n        /* \"#utility.yul\":5663:5672   */\n      dup3\n        /* \"#utility.yul\":5659:5677   */\n      add\n        /* \"#utility.yul\":5651:5677   */\n      swap1\n      pop\n        /* \"#utility.yul\":5723:5732   */\n      dup2\n        /* \"#utility.yul\":5717:5721   */\n      dup2\n        /* \"#utility.yul\":5713:5733   */\n      sub\n        /* \"#utility.yul\":5709:5710   */\n      0x00\n        /* \"#utility.yul\":5698:5707   */\n      dup4\n        /* \"#utility.yul\":5694:5711   */\n      add\n        /* \"#utility.yul\":5687:5734   */\n      mstore\n        /* \"#utility.yul\":5751:5882   */\n      tag_149\n        /* \"#utility.yul\":5877:5881   */\n      dup2\n        /* \"#utility.yul\":5751:5882   */\n      tag_87\n      jump\t// in\n    tag_149:\n        /* \"#utility.yul\":5743:5882   */\n      swap1\n      pop\n        /* \"#utility.yul\":5470:5889   */\n      swap2\n      swap1\n      pop\n      jump\t// out\n\n    auxdata: 0xa264697066735822122077be32ebdb4f74d1bce23a36ac3146f98e2a2b967f8ec71ba697983c03b2a30764736f6c634300081e0033\n}\n",
				"bytecode": {
					"linkReferences": {},
					"object": "60c060405234801561000f575f5ffd5b506040516109fa3803806109fa8339818101604052810190610031919061007f565b81608081815250508060a0818152505050506100bd565b5f5ffd5b5f819050919050565b61005e8161004c565b8114610068575f5ffd5b50565b5f8151905061007981610055565b92915050565b5f5f6040838503121561009557610094610048565b5b5f6100a28582860161006b565b92505060206100b38582860161006b565b9150509250929050565b60805160a0516109006100fa5f395f81816102b1015281816102d501526102fe01525f8181610179015281816101ae015261057e01526109005ff3fe60806040526004361061006f575f3560e01c8063e2eec9a71161004d578063e2eec9a7146100cf578063e32581eb146100f9578063f239d18a14610123578063f5202a991461014d5761006f565b80633d922f9014610073578063808402ce1461007d578063bc896d53146100a7575b5f5ffd5b61007b610177565b005b348015610088575f5ffd5b506100916102af565b60405161009e9190610603565b60405180910390f35b3480156100b2575f5ffd5b506100cd60048036038101906100c8919061064a565b6102d3565b005b3480156100da575f5ffd5b506100e3610567565b6040516100f09190610603565b60405180910390f35b348015610104575f5ffd5b5061010d610576565b60405161011a9190610603565b60405180910390f35b34801561012e575f5ffd5b5061013761057c565b6040516101449190610603565b60405180910390f35b348015610158575f5ffd5b506101616105a0565b60405161016e9190610603565b60405180910390f35b7f000000000000000000000000000000000000000000000000000000000000000047111561020b573434476101ac91906106a2565b7f00000000000000000000000000000000000000000000000000000000000000006040517f81e441e5000000000000000000000000000000000000000000000000000000008152600401610202939291906106d5565b60405180910390fd5b345f5f3373ffffffffffffffffffffffffffffffffffffffff1673ffffffffffffffffffffffffffffffffffffffff1681526020019081526020015f205f828254610256919061070a565b9250508190555060015f81548092919061026f9061073d565b91905055507f446ddf6e906b87ec964d4548644b2f3abc3fa05b316fb0b8ee6ea5fb5bd37a4133346040516102a59291906107c3565b60405180910390a1565b7f000000000000000000000000000000000000000000000000000000000000000081565b7f000000000000000000000000000000000000000000000000000000000000000081111561035a57807f00000000000000000000000000000000000000000000000000000000000000006040517f0676560a0000000000000000000000000000000000000000000000000000000081526004016103519291906107ea565b60405180910390fd5b5f5f3373ffffffffffffffffffffffffffffffffffffffff1673ffffffffffffffffffffffffffffffffffffffff1681526020019081526020015f205481111561041957805f5f3373ffffffffffffffffffffffffffffffffffffffff1673ffffffffffffffffffffffffffffffffffffffff1681526020019081526020015f20546040517f402fa7680000000000000000000000000000000000000000000000000000000081526004016104109291906107ea565b60405180910390fd5b805f5f3373ffffffffffffffffffffffffffffffffffffffff1673ffffffffffffffffffffffffffffffffffffffff1681526020019081526020015f205f82825461046491906106a2565b9250508190555060025f81548092919061047d9061073d565b91905055505f3373ffffffffffffffffffffffffffffffffffffffff16826040516104a79061083e565b5f6040518083038185875af1925050503d805f81146104e1576040519150601f19603f3d011682016040523d82523d5f602084013e6104e6565b606091505b505090508061052a576040517f08c379a0000000000000000000000000000000000000000000000000000000008152600401610521906108ac565b60405180910390fd5b7fa409e9174b606c22c983922e33fb50acacca16d8f380f32b8ea00fcef9326fda338360405161055b9291906107c3565b60405180910390a15050565b5f610571336105a6565b905090565b60025481565b7f000000000000000000000000000000000000000000000000000000000000000081565b60015481565b5f5f5f8373ffffffffffffffffffffffffffffffffffffffff1673ffffffffffffffffffffffffffffffffffffffff1681526020019081526020015f20549050919050565b5f819050919050565b6105fd816105eb565b82525050565b5f6020820190506106165f8301846105f4565b92915050565b5f5ffd5b610629816105eb565b8114610633575f5ffd5b50565b5f8135905061064481610620565b92915050565b5f6020828403121561065f5761065e61061c565b5b5f61066c84828501610636565b91505092915050565b7f4e487b71000000000000000000000000000000000000000000000000000000005f52601160045260245ffd5b5f6106ac826105eb565b91506106b7836105eb565b92508282039050818111156106cf576106ce610675565b5b92915050565b5f6060820190506106e85f8301866105f4565b6106f560208301856105f4565b61070260408301846105f4565b949350505050565b5f610714826105eb565b915061071f836105eb565b925082820190508082111561073757610736610675565b5b92915050565b5f610747826105eb565b91507fffffffffffffffffffffffffffffffffffffffffffffffffffffffffffffffff820361077957610778610675565b5b600182019050919050565b5f73ffffffffffffffffffffffffffffffffffffffff82169050919050565b5f6107ad82610784565b9050919050565b6107bd816107a3565b82525050565b5f6040820190506107d65f8301856107b4565b6107e360208301846105f4565b9392505050565b5f6040820190506107fd5f8301856105f4565b61080a60208301846105f4565b9392505050565b5f81905092915050565b50565b5f6108295f83610811565b91506108348261081b565b5f82019050919050565b5f6108488261081e565b9150819050919050565b5f82825260208201905092915050565b7f46616c6c6f20656c20656e76696f2064656c2073616c646f00000000000000005f82015250565b5f610896601883610852565b91506108a182610862565b602082019050919050565b5f6020820190508181035f8301526108c38161088a565b905091905056fea264697066735822122077be32ebdb4f74d1bce23a36ac3146f98e2a2b967f8ec71ba697983c03b2a30764736f6c634300081e0033",
					"opcodes": "PUSH1 0xC0 PUSH1 0x40 MSTORE CALLVALUE DUP1 ISZERO PUSH2 0xF JUMPI PUSH0 PUSH0 REVERT JUMPDEST POP PUSH1 0x40 MLOAD PUSH2 0x9FA CODESIZE SUB DUP1 PUSH2 0x9FA DUP4 CODECOPY DUP2 DUP2 ADD PUSH1 0x40 MSTORE DUP2 ADD SWAP1 PUSH2 0x31 SWAP2 SWAP1 PUSH2 0x7F JUMP JUMPDEST DUP2 PUSH1 0x80 DUP2 DUP2 MSTORE POP POP DUP1 PUSH1 0xA0 DUP2 DUP2 MSTORE POP POP POP POP PUSH2 0xBD JUMP JUMPDEST PUSH0 PUSH0 REVERT JUMPDEST PUSH0 DUP2 SWAP1 POP SWAP2 SWAP1 POP JUMP JUMPDEST PUSH2 0x5E DUP2 PUSH2 0x4C JUMP JUMPDEST DUP2 EQ PUSH2 0x68 JUMPI PUSH0 PUSH0 REVERT JUMPDEST POP JUMP JUMPDEST PUSH0 DUP2 MLOAD SWAP1 POP PUSH2 0x79 DUP2 PUSH2 0x55 JUMP JUMPDEST SWAP3 SWAP2 POP POP JUMP JUMPDEST PUSH0 PUSH0 PUSH1 0x40 DUP4 DUP6 SUB SLT ISZERO PUSH2 0x95 JUMPI PUSH2 0x94 PUSH2 0x48 JUMP JUMPDEST JUMPDEST PUSH0 PUSH2 0xA2 DUP6 DUP3 DUP7 ADD PUSH2 0x6B JUMP JUMPDEST SWAP3 POP POP PUSH1 0x20 PUSH2 0xB3 DUP6 DUP3 DUP7 ADD PUSH2 0x6B JUMP JUMPDEST SWAP2 POP POP SWAP3 POP SWAP3 SWAP1 POP JUMP JUMPDEST PUSH1 0x80 MLOAD PUSH1 0xA0 MLOAD PUSH2 0x900 PUSH2 0xFA PUSH0 CODECOPY PUSH0 DUP2 DUP2 PUSH2 0x2B1 ADD MSTORE DUP2 DUP2 PUSH2 0x2D5 ADD MSTORE PUSH2 0x2FE ADD MSTORE PUSH0 DUP2 DUP2 PUSH2 0x179 ADD MSTORE DUP2 DUP2 PUSH2 0x1AE ADD MSTORE PUSH2 0x57E ADD MSTORE PUSH2 0x900 PUSH0 RETURN INVALID PUSH1 0x80 PUSH1 0x40 MSTORE PUSH1 0x4 CALLDATASIZE LT PUSH2 0x6F JUMPI PUSH0 CALLDATALOAD PUSH1 0xE0 SHR DUP1 PUSH4 0xE2EEC9A7 GT PUSH2 0x4D JUMPI DUP1 PUSH4 0xE2EEC9A7 EQ PUSH2 0xCF JUMPI DUP1 PUSH4 0xE32581EB EQ PUSH2 0xF9 JUMPI DUP1 PUSH4 0xF239D18A EQ PUSH2 0x123 JUMPI DUP1 PUSH4 0xF5202A99 EQ PUSH2 0x14D JUMPI PUSH2 0x6F JUMP JUMPDEST DUP1 PUSH4 0x3D922F90 EQ PUSH2 0x73 JUMPI DUP1 PUSH4 0x808402CE EQ PUSH2 0x7D JUMPI DUP1 PUSH4 0xBC896D53 EQ PUSH2 0xA7 JUMPI JUMPDEST PUSH0 PUSH0 REVERT JUMPDEST PUSH2 0x7B PUSH2 0x177 JUMP JUMPDEST STOP JUMPDEST CALLVALUE DUP1 ISZERO PUSH2 0x88 JUMPI PUSH0 PUSH0 REVERT JUMPDEST POP PUSH2 0x91 PUSH2 0x2AF JUMP JUMPDEST PUSH1 0x40 MLOAD PUSH2 0x9E SWAP2 SWAP1 PUSH2 0x603 JUMP JUMPDEST PUSH1 0x40 MLOAD DUP1 SWAP2 SUB SWAP1 RETURN JUMPDEST CALLVALUE DUP1 ISZERO PUSH2 0xB2 JUMPI PUSH0 PUSH0 REVERT JUMPDEST POP PUSH2 0xCD PUSH1 0x4 DUP1 CALLDATASIZE SUB DUP2 ADD SWAP1 PUSH2 0xC8 SWAP2 SWAP1 PUSH2 0x64A JUMP JUMPDEST PUSH2 0x2D3 JUMP JUMPDEST STOP JUMPDEST CALLVALUE DUP1 ISZERO PUSH2 0xDA JUMPI PUSH0 PUSH0 REVERT JUMPDEST POP PUSH2 0xE3 PUSH2 0x567 JUMP JUMPDEST PUSH1 0x40 MLOAD PUSH2 0xF0 SWAP2 SWAP1 PUSH2 0x603 JUMP JUMPDEST PUSH1 0x40 MLOAD DUP1 SWAP2 SUB SWAP1 RETURN JUMPDEST CALLVALUE DUP1 ISZERO PUSH2 0x104 JUMPI PUSH0 PUSH0 REVERT JUMPDEST POP PUSH2 0x10D PUSH2 0x576 JUMP JUMPDEST PUSH1 0x40 MLOAD PUSH2 0x11A SWAP2 SWAP1 PUSH2 0x603 JUMP JUMPDEST PUSH1 0x40 MLOAD DUP1 SWAP2 SUB SWAP1 RETURN JUMPDEST CALLVALUE DUP1 ISZERO PUSH2 0x12E JUMPI PUSH0 PUSH0 REVERT JUMPDEST POP PUSH2 0x137 PUSH2 0x57C JUMP JUMPDEST PUSH1 0x40 MLOAD PUSH2 0x144 SWAP2 SWAP1 PUSH2 0x603 JUMP JUMPDEST PUSH1 0x40 MLOAD DUP1 SWAP2 SUB SWAP1 RETURN JUMPDEST CALLVALUE DUP1 ISZERO PUSH2 0x158 JUMPI PUSH0 PUSH0 REVERT JUMPDEST POP PUSH2 0x161 PUSH2 0x5A0 JUMP JUMPDEST PUSH1 0x40 MLOAD PUSH2 0x16E SWAP2 SWAP1 PUSH2 0x603 JUMP JUMPDEST PUSH1 0x40 MLOAD DUP1 SWAP2 SUB SWAP1 RETURN JUMPDEST PUSH32 0x0 SELFBALANCE GT ISZERO PUSH2 0x20B JUMPI CALLVALUE CALLVALUE SELFBALANCE PUSH2 0x1AC SWAP2 SWAP1 PUSH2 0x6A2 JUMP JUMPDEST PUSH32 0x0 PUSH1 0x40 MLOAD PUSH32 0x81E441E500000000000000000000000000000000000000000000000000000000 DUP2 MSTORE PUSH1 0x4 ADD PUSH2 0x202 SWAP4 SWAP3 SWAP2 SWAP1 PUSH2 0x6D5 JUMP JUMPDEST PUSH1 0x40 MLOAD DUP1 SWAP2 SUB SWAP1 REVERT JUMPDEST CALLVALUE PUSH0 PUSH0 CALLER PUSH20 0xFFFFFFFFFFFFFFFFFFFFFFFFFFFFFFFFFFFFFFFF AND PUSH20 0xFFFFFFFFFFFFFFFFFFFFFFFFFFFFFFFFFFFFFFFF AND DUP2 MSTORE PUSH1 0x20 ADD SWAP1 DUP2 MSTORE PUSH1 0x20 ADD PUSH0 KECCAK256 PUSH0 DUP3 DUP3 SLOAD PUSH2 0x256 SWAP2 SWAP1 PUSH2 0x70A JUMP JUMPDEST SWAP3 POP POP DUP2 SWAP1 SSTORE POP PUSH1 0x1 PUSH0 DUP2 SLOAD DUP1 SWAP3 SWAP2 SWAP1 PUSH2 0x26F SWAP1 PUSH2 0x73D JUMP JUMPDEST SWAP2 SWAP1 POP SSTORE POP PUSH32 0x446DDF6E906B87EC964D4548644B2F3ABC3FA05B316FB0B8EE6EA5FB5BD37A41 CALLER CALLVALUE PUSH1 0x40 MLOAD PUSH2 0x2A5 SWAP3 SWAP2 SWAP1 PUSH2 0x7C3 JUMP JUMPDEST PUSH1 0x40 MLOAD DUP1 SWAP2 SUB SWAP1 LOG1 JUMP JUMPDEST PUSH32 0x0 DUP2 JUMP JUMPDEST PUSH32 0x0 DUP2 GT ISZERO PUSH2 0x35A JUMPI DUP1 PUSH32 0x0 PUSH1 0x40 MLOAD PUSH32 0x676560A00000000000000000000000000000000000000000000000000000000 DUP2 MSTORE PUSH1 0x4 ADD PUSH2 0x351 SWAP3 SWAP2 SWAP1 PUSH2 0x7EA JUMP JUMPDEST PUSH1 0x40 MLOAD DUP1 SWAP2 SUB SWAP1 REVERT JUMPDEST PUSH0 PUSH0 CALLER PUSH20 0xFFFFFFFFFFFFFFFFFFFFFFFFFFFFFFFFFFFFFFFF AND PUSH20 0xFFFFFFFFFFFFFFFFFFFFFFFFFFFFFFFFFFFFFFFF AND DUP2 MSTORE PUSH1 0x20 ADD SWAP1 DUP2 MSTORE PUSH1 0x20 ADD PUSH0 KECCAK256 SLOAD DUP2 GT ISZERO PUSH2 0x419 JUMPI DUP1 PUSH0 PUSH0 CALLER PUSH20 0xFFFFFFFFFFFFFFFFFFFFFFFFFFFFFFFFFFFFFFFF AND PUSH20 0xFFFFFFFFFFFFFFFFFFFFFFFFFFFFFFFFFFFFFFFF AND DUP2 MSTORE PUSH1 0x20 ADD SWAP1 DUP2 MSTORE PUSH1 0x20 ADD PUSH0 KECCAK256 SLOAD PUSH1 0x40 MLOAD PUSH32 0x402FA76800000000000000000000000000000000000000000000000000000000 DUP2 MSTORE PUSH1 0x4 ADD PUSH2 0x410 SWAP3 SWAP2 SWAP1 PUSH2 0x7EA JUMP JUMPDEST PUSH1 0x40 MLOAD DUP1 SWAP2 SUB SWAP1 REVERT JUMPDEST DUP1 PUSH0 PUSH0 CALLER PUSH20 0xFFFFFFFFFFFFFFFFFFFFFFFFFFFFFFFFFFFFFFFF AND PUSH20 0xFFFFFFFFFFFFFFFFFFFFFFFFFFFFFFFFFFFFFFFF AND DUP2 MSTORE PUSH1 0x20 ADD SWAP1 DUP2 MSTORE PUSH1 0x20 ADD PUSH0 KECCAK256 PUSH0 DUP3 DUP3 SLOAD PUSH2 0x464 SWAP2 SWAP1 PUSH2 0x6A2 JUMP JUMPDEST SWAP3 POP POP DUP2 SWAP1 SSTORE POP PUSH1 0x2 PUSH0 DUP2 SLOAD DUP1 SWAP3 SWAP2 SWAP1 PUSH2 0x47D SWAP1 PUSH2 0x73D JUMP JUMPDEST SWAP2 SWAP1 POP SSTORE POP PUSH0 CALLER PUSH20 0xFFFFFFFFFFFFFFFFFFFFFFFFFFFFFFFFFFFFFFFF AND DUP3 PUSH1 0x40 MLOAD PUSH2 0x4A7 SWAP1 PUSH2 0x83E JUMP JUMPDEST PUSH0 PUSH1 0x40 MLOAD DUP1 DUP4 SUB DUP2 DUP6 DUP8 GAS CALL SWAP3 POP POP POP RETURNDATASIZE DUP1 PUSH0 DUP2 EQ PUSH2 0x4E1 JUMPI PUSH1 0x40 MLOAD SWAP2 POP PUSH1 0x1F NOT PUSH1 0x3F RETURNDATASIZE ADD AND DUP3 ADD PUSH1 0x40 MSTORE RETURNDATASIZE DUP3 MSTORE RETURNDATASIZE PUSH0 PUSH1 0x20 DUP5 ADD RETURNDATACOPY PUSH2 0x4E6 JUMP JUMPDEST PUSH1 0x60 SWAP2 POP JUMPDEST POP POP SWAP1 POP DUP1 PUSH2 0x52A JUMPI PUSH1 0x40 MLOAD PUSH32 0x8C379A000000000000000000000000000000000000000000000000000000000 DUP2 MSTORE PUSH1 0x4 ADD PUSH2 0x521 SWAP1 PUSH2 0x8AC JUMP JUMPDEST PUSH1 0x40 MLOAD DUP1 SWAP2 SUB SWAP1 REVERT JUMPDEST PUSH32 0xA409E9174B606C22C983922E33FB50ACACCA16D8F380F32B8EA00FCEF9326FDA CALLER DUP4 PUSH1 0x40 MLOAD PUSH2 0x55B SWAP3 SWAP2 SWAP1 PUSH2 0x7C3 JUMP JUMPDEST PUSH1 0x40 MLOAD DUP1 SWAP2 SUB SWAP1 LOG1 POP POP JUMP JUMPDEST PUSH0 PUSH2 0x571 CALLER PUSH2 0x5A6 JUMP JUMPDEST SWAP1 POP SWAP1 JUMP JUMPDEST PUSH1 0x2 SLOAD DUP2 JUMP JUMPDEST PUSH32 0x0 DUP2 JUMP JUMPDEST PUSH1 0x1 SLOAD DUP2 JUMP JUMPDEST PUSH0 PUSH0 PUSH0 DUP4 PUSH20 0xFFFFFFFFFFFFFFFFFFFFFFFFFFFFFFFFFFFFFFFF AND PUSH20 0xFFFFFFFFFFFFFFFFFFFFFFFFFFFFFFFFFFFFFFFF AND DUP2 MSTORE PUSH1 0x20 ADD SWAP1 DUP2 MSTORE PUSH1 0x20 ADD PUSH0 KECCAK256 SLOAD SWAP1 POP SWAP2 SWAP1 POP JUMP JUMPDEST PUSH0 DUP2 SWAP1 POP SWAP2 SWAP1 POP JUMP JUMPDEST PUSH2 0x5FD DUP2 PUSH2 0x5EB JUMP JUMPDEST DUP3 MSTORE POP POP JUMP JUMPDEST PUSH0 PUSH1 0x20 DUP3 ADD SWAP1 POP PUSH2 0x616 PUSH0 DUP4 ADD DUP5 PUSH2 0x5F4 JUMP JUMPDEST SWAP3 SWAP2 POP POP JUMP JUMPDEST PUSH0 PUSH0 REVERT JUMPDEST PUSH2 0x629 DUP2 PUSH2 0x5EB JUMP JUMPDEST DUP2 EQ PUSH2 0x633 JUMPI PUSH0 PUSH0 REVERT JUMPDEST POP JUMP JUMPDEST PUSH0 DUP2 CALLDATALOAD SWAP1 POP PUSH2 0x644 DUP2 PUSH2 0x620 JUMP JUMPDEST SWAP3 SWAP2 POP POP JUMP JUMPDEST PUSH0 PUSH1 0x20 DUP3 DUP5 SUB SLT ISZERO PUSH2 0x65F JUMPI PUSH2 0x65E PUSH2 0x61C JUMP JUMPDEST JUMPDEST PUSH0 PUSH2 0x66C DUP5 DUP3 DUP6 ADD PUSH2 0x636 JUMP JUMPDEST SWAP2 POP POP SWAP3 SWAP2 POP POP JUMP JUMPDEST PUSH32 0x4E487B7100000000000000000000000000000000000000000000000000000000 PUSH0 MSTORE PUSH1 0x11 PUSH1 0x4 MSTORE PUSH1 0x24 PUSH0 REVERT JUMPDEST PUSH0 PUSH2 0x6AC DUP3 PUSH2 0x5EB JUMP JUMPDEST SWAP2 POP PUSH2 0x6B7 DUP4 PUSH2 0x5EB JUMP JUMPDEST SWAP3 POP DUP3 DUP3 SUB SWAP1 POP DUP2 DUP2 GT ISZERO PUSH2 0x6CF JUMPI PUSH2 0x6CE PUSH2 0x675 JUMP JUMPDEST JUMPDEST SWAP3 SWAP2 POP POP JUMP JUMPDEST PUSH0 PUSH1 0x60 DUP3 ADD SWAP1 POP PUSH2 0x6E8 PUSH0 DUP4 ADD DUP7 PUSH2 0x5F4 JUMP JUMPDEST PUSH2 0x6F5 PUSH1 0x20 DUP4 ADD DUP6 PUSH2 0x5F4 JUMP JUMPDEST PUSH2 0x702 PUSH1 0x40 DUP4 ADD DUP5 PUSH2 0x5F4 JUMP JUMPDEST SWAP5 SWAP4 POP POP POP POP JUMP JUMPDEST PUSH0 PUSH2 0x714 DUP3 PUSH2 0x5EB JUMP JUMPDEST SWAP2 POP PUSH2 0x71F DUP4 PUSH2 0x5EB JUMP JUMPDEST SWAP3 POP DUP3 DUP3 ADD SWAP1 POP DUP1 DUP3 GT ISZERO PUSH2 0x737 JUMPI PUSH2 0x736 PUSH2 0x675 JUMP JUMPDEST JUMPDEST SWAP3 SWAP2 POP POP JUMP JUMPDEST PUSH0 PUSH2 0x747 DUP3 PUSH2 0x5EB JUMP JUMPDEST SWAP2 POP PUSH32 0xFFFFFFFFFFFFFFFFFFFFFFFFFFFFFFFFFFFFFFFFFFFFFFFFFFFFFFFFFFFFFFFF DUP3 SUB PUSH2 0x779 JUMPI PUSH2 0x778 PUSH2 0x675 JUMP JUMPDEST JUMPDEST PUSH1 0x1 DUP3 ADD SWAP1 POP SWAP2 SWAP1 POP JUMP JUMPDEST PUSH0 PUSH20 0xFFFFFFFFFFFFFFFFFFFFFFFFFFFFFFFFFFFFFFFF DUP3 AND SWAP1 POP SWAP2 SWAP1 POP JUMP JUMPDEST PUSH0 PUSH2 0x7AD DUP3 PUSH2 0x784 JUMP JUMPDEST SWAP1 POP SWAP2 SWAP1 POP JUMP JUMPDEST PUSH2 0x7BD DUP2 PUSH2 0x7A3 JUMP JUMPDEST DUP3 MSTORE POP POP JUMP JUMPDEST PUSH0 PUSH1 0x40 DUP3 ADD SWAP1 POP PUSH2 0x7D6 PUSH0 DUP4 ADD DUP6 PUSH2 0x7B4 JUMP JUMPDEST PUSH2 0x7E3 PUSH1 0x20 DUP4 ADD DUP5 PUSH2 0x5F4 JUMP JUMPDEST SWAP4 SWAP3 POP POP POP JUMP JUMPDEST PUSH0 PUSH1 0x40 DUP3 ADD SWAP1 POP PUSH2 0x7FD PUSH0 DUP4 ADD DUP6 PUSH2 0x5F4 JUMP JUMPDEST PUSH2 0x80A PUSH1 0x20 DUP4 ADD DUP5 PUSH2 0x5F4 JUMP JUMPDEST SWAP4 SWAP3 POP POP POP JUMP JUMPDEST PUSH0 DUP2 SWAP1 POP SWAP3 SWAP2 POP POP JUMP JUMPDEST POP JUMP JUMPDEST PUSH0 PUSH2 0x829 PUSH0 DUP4 PUSH2 0x811 JUMP JUMPDEST SWAP2 POP PUSH2 0x834 DUP3 PUSH2 0x81B JUMP JUMPDEST PUSH0 DUP3 ADD SWAP1 POP SWAP2 SWAP1 POP JUMP JUMPDEST PUSH0 PUSH2 0x848 DUP3 PUSH2 0x81E JUMP JUMPDEST SWAP2 POP DUP2 SWAP1 POP SWAP2 SWAP1 POP JUMP JUMPDEST PUSH0 DUP3 DUP3 MSTORE PUSH1 0x20 DUP3 ADD SWAP1 POP SWAP3 SWAP2 POP POP JUMP JUMPDEST PUSH32 0x46616C6C6F20656C20656E76696F2064656C2073616C646F0000000000000000 PUSH0 DUP3 ADD MSTORE POP JUMP JUMPDEST PUSH0 PUSH2 0x896 PUSH1 0x18 DUP4 PUSH2 0x852 JUMP JUMPDEST SWAP2 POP PUSH2 0x8A1 DUP3 PUSH2 0x862 JUMP JUMPDEST PUSH1 0x20 DUP3 ADD SWAP1 POP SWAP2 SWAP1 POP JUMP JUMPDEST PUSH0 PUSH1 0x20 DUP3 ADD SWAP1 POP DUP2 DUP2 SUB PUSH0 DUP4 ADD MSTORE PUSH2 0x8C3 DUP2 PUSH2 0x88A JUMP JUMPDEST SWAP1 POP SWAP2 SWAP1 POP JUMP INVALID LOG2 PUSH5 0x6970667358 0x22 SLT KECCAK256 PUSH24 0xBE32EBDB4F74D1BCE23A36AC3146F98E2A2B967F8EC71BA6 SWAP8 SWAP9 EXTCODECOPY SUB 0xB2 LOG3 SMOD PUSH5 0x736F6C6343 STOP ADDMOD 0x1E STOP CALLER "
				},
				"gasEstimates": {
					"creation": {
						"codeDepositCost": "460800",
						"executionCost": "infinite",
						"totalCost": "infinite"
					},
					"external": {
						"depositar()": "infinite",
						"getSaldo()": "2560",
						"i_limitRetiro()": "infinite",
						"i_limitValorDeposito()": "infinite",
						"retiro(uint256)": "infinite",
						"s_cantDepositos()": "2491",
						"s_cantRetiros()": "2447"
					},
					"internal": {
						"_getSaldo(address)": "2220"
					}
				},
				"methodIdentifiers": {
					"depositar()": "3d922f90",
					"getSaldo()": "e2eec9a7",
					"i_limitRetiro()": "808402ce",
					"i_limitValorDeposito()": "f239d18a",
					"retiro(uint256)": "bc896d53",
					"s_cantDepositos()": "f5202a99",
					"s_cantRetiros()": "e32581eb"
				}
			},
			"storageLayout": {
				"storage": [
					{
						"astId": 7,
						"contract": "contracts/kipu-bank.sol:KipuBank",
						"label": "s_saldos",
						"offset": 0,
						"slot": "0",
						"type": "t_mapping(t_address,t_uint256)"
					},
					{
						"astId": 10,
						"contract": "contracts/kipu-bank.sol:KipuBank",
						"label": "s_cantDepositos",
						"offset": 0,
						"slot": "1",
						"type": "t_uint256"
					},
					{
						"astId": 13,
						"contract": "contracts/kipu-bank.sol:KipuBank",
						"label": "s_cantRetiros",
						"offset": 0,
						"slot": "2",
						"type": "t_uint256"
					}
				],
				"types": {
					"t_address": {
						"encoding": "inplace",
						"label": "address",
						"numberOfBytes": "20"
					},
					"t_mapping(t_address,t_uint256)": {
						"encoding": "mapping",
						"key": "t_address",
						"label": "mapping(address => uint256)",
						"numberOfBytes": "32",
						"value": "t_uint256"
					},
					"t_uint256": {
						"encoding": "inplace",
						"label": "uint256",
						"numberOfBytes": "32"
					}
				}
			},
			"userdoc": {
				"errors": {
					"KipuBank_CantCero()": [
						{
							"notice": "Error cuando el monto de una transaccion es cero"
						}
					],
					"KipuBank_LimiteBancarioExcedido(uint256,uint256,uint256)": [
						{
							"notice": "Error cuando la cantidad total depositada excede el limite permitido por el banco"
						}
					],
					"KipuBank_LimiteExcedidoRetiro(uint256,uint256)": [
						{
							"notice": "Error cuando el monto a retirar excede el limite de retiro permitido por transaccion"
						}
					],
					"KipuBank_SaldoInsuficiente(uint256,uint256)": [
						{
							"notice": "Error cuando un usuario intenta retirar mas fondos de los que tiene disponible"
						}
					]
				},
				"events": {
					"KipuBank_Deposito(address,uint256)": {
						"notice": "Evento emitido cuando un deposito se realiza con exito."
					},
					"KipuBank_Retiro(address,uint256)": {
						"notice": "Evento emitido cuando un retiro se realiza con exito"
					}
				},
				"kind": "user",
				"methods": {
					"depositar()": {
						"notice": "Permite a los usuarios depositar saldo en su almacenamiento personal."
					},
					"getSaldo()": {
						"notice": "Obtiene el saldo actual de un usuario"
					},
					"i_limitRetiro()": {
						"notice": "Limite maximo de saldo que un usuario puede retirar en una transaccion"
					},
					"i_limitValorDeposito()": {
						"notice": "Limite de Saldo que el banco permite almacenar en total"
					},
					"retiro(uint256)": {
						"notice": "Permite a los usuarios retirar saldo de su deposito almacenado."
					},
					"s_cantDepositos()": {
						"notice": "Cantidad de depositos que se realizaron en el contrato"
					},
					"s_cantRetiros()": {
						"notice": "Cantidad de retiros que se realizaron en el contrato"
					}
				},
				"version": 1
			}
		}
	}
}